:1000000002C100000C946A300C943F300C94143000
:100010000C94E92F0C94BE2F0C94932F0C94682F02
:100020000C943D2F0C9458321FC100000C94E53104
:100030001BC1000019C1000017C1000015C100005C
:1000400013C1000011C100000FC100000DC100006C
:100050000BC1000009C1000007C100000C94F32E81
:1000600003C100000C94BB310C949131FDC0000021
:10007000FBC00000F9C00000F7C00000F5C00000A0
:10008000F3C00000F1C00000EFC00000EDC00000B0
:100090000C9467310C943D31E7C000000C94CA32D7
:1000A000E3C00000E1C00000DFC00000DDC00000D0
:1000B000DBC00000D9C00000D7C00000D5C00000E0
:1000C000D3C00000D1C00000CFC000000C94133199
:1000D0000C94E930C9C000000C94BF300C949530EA
:1000E000C3C0000000002100240027002A002D00CA
:1000F0003000330001010000040107010A01000083
:100100002200250028002B002E00310034000201BF
:100110000000050108010B0100000A0B02090C0D8B
:100120000E080703040100000000000000000000AA
:1001300000000000000000000000000000000000BF
:10014000000000001211100000000000000000007C
:10015000000000000000000000000000000001029C
:1001600010202008081020401020408002010201C9
:100170000804020101020408102040808040201081
:1001800008040201800402018040201008040201DA
:100190000804020101020408102040800102040842
:1001A00010204080000020002300260029002C00A1
:1001B0002F003200000100000301060109010505BE
:1001C0000505070508080808020202020A0A0808CD
:1001D00004040404010101010101010103030303FB
:1001E00003030303040707070C0C0C0C0C0C0C0C8A
:1001F0000202020206060606060606060B0B0B0B9B
:100200000B0B0B0BD73511241FBECFEFD1E2DEBF96
:10021000CDBF00E00CBF18E0A0E0B2E0E4EAF0E9F6
:1002200000E00BBF02C007900D92A03AB107D9F7CA
:1002300023E1A0EAB8E001C01D92AB3EB207E1F7AE
:1002400011E0C3E0D1E000E006C021970109802F52
:10025000FE010E940A46C230D10780E00807A9F7D4
:100260000E94D83A0C945048CBCEFC0122813381B5
:100270004091CC085091CD082417350751F03093A8
:10028000B3082093B208828193819093CD08809324
:10029000CC080895FC01228133814091EE085091F1
:1002A000EF082417350751F03093D7082093D6086C
:1002B000828193819093EF088093EE0808950895CA
:1002C000FC0182819091F00889138093F0080895D1
:1002D0008CBD9DBD08954F925F926F927F928F92D9
:1002E0009F92AF92BF92CF92DF92EF92FF920F93C5
:1002F0001F93CF93DF93CDB7DEB762970FB6F89415
:10030000DEBF0FBECDBF9A8B898BCB01BA013901FD
:100310008090261390902713A0902813B090291353
:1003200020E030E040E752E40E94A143A50194019F
:100330000E94044569837A838B839C8320E030E0AC
:1003400040E752E4C301B8010E94A143A501940112
:100350000E94044569877A878B879C8720E030E07C
:1003600040E05FE360911A1370911B1380911C139E
:1003700090911D130E94A1432B013C0120E030E02D
:1003800040E05FE360911E1370911F138091201372
:10039000909121130E94A1439B01AC01C301B201C2
:1003A0000E94A0442B013C0120E030E040E752E4F1
:1003B000C701B6010E94A1439B01AC01C301B20178
:1003C0000E94A143A50194010E9404456D837E8390
:1003D0008F83988729853A854B855C8569817A81E9
:1003E0008B819C810E949F446D877E878F87988B2D
:1003F0002D813E814F8158850E949F44562E672E45
:10040000782E492EC0901213D0901313E09014133D
:10041000F090151346015701B7FAB094B7F8B094AD
:10042000A50194010E943C4387FDA9C0A701960144
:10043000652D762D872D942D0E94EF4518160CF40E
:10044000A3C0852D962DA72DB42DE989FA89808327
:100450009183A283B38329853A854B855C85698125
:100460007A818B819C810E94A04469837A838B83EB
:100470009C839B01AC016D817E818F8198850E9458
:10048000A0442B013C019B01AC01C501B4010E94B9
:10049000EF4518160CF47DC09201A301C701B60107
:1004A0000E943C4387FD78C0C201D301E989FA89E3
:1004B00084839583A683B7832D813E814F815885A0
:1004C00069817A818B819C810E949F442B013C0130
:1004D0009B01AC01C501B4010E94EF4518160CF454
:1004E0005EC09201A301C701B6010E943C4387FD93
:1004F00059C0C201D301E989FA8980879187A2870F
:10050000B3872D853E854F8558896D817E818F818A
:1005100098850E94A0443B012C019B01AC01C501C0
:10052000B4010E94EF45181664F09301A201C701BF
:10053000B6010E943C434301520187FF02C04601BD
:100540005701E989FA8984869586A686B786CF0100
:1005500062960FB6F894DEBF0FBECDBFDF91CF918C
:100560001F910F91FF90EF90DF90CF90BF90AF90D1
:100570009F908F907F906F905F904F900895582C30
:10058000692C7A2C4B2C5DCF5C2C6D2C7E2C4F2C47
:1005900058CF2401350188CF2601370185CF2401AA
:1005A0003501A7CF26013701A4CFE0EBF1E130E020
:1005B00020E041915191452B91F4F901EE0FFF1F7D
:1005C000E055FE4E9183808323583F4FFC013583D5
:1005D000248327E83DE03783268381E008952F5F59
:1005E0003F4F2931310529F780E00895FC01818DC5
:1005F000928D08958150823108F05AC0E82FF0E0C2
:100600008827EA5FFC4F8F4F0C940A4626032A0383
:1006100018031E03220358032D03330337033D033E
:10062000410345034B034F035803530359035D0331
:10063000809180008F778093800008958091800062
:100640008F7DF9CF80918000877FF5CF84B58F773C
:1006500084BD089584B58F7DFBCF8091B0008F77E6
:100660008093B00008958091B0008F7DF9CF809184
:1006700090008F77809390000895809190008F7DF7
:10068000F9CF80919000877FF5CF8091A0008F7780
:100690008093A00008958091A0008F7DF9CF809174
:1006A000A000877FF5CF809120018F778093200174
:1006B0000895809120018F7DF9CF80912001877F5F
:1006C000F5CFCF93DF93282F30E0F901E85EFE4F9E
:1006D0008491F901E25AFE4FD491F901E254FE4FA0
:1006E000C491CC2399F0811185DFEC2FF0E0EE0F5F
:1006F000FF1FEC55FE4FA591B491EC91ED2381E0E5
:1007000090E009F480E0DF91CF91089580E090E0DF
:10071000FACF1F93CF93DF93282F30E0F901E85EE3
:10072000FE4F8491F901E25AFE4FD491F901E2544F
:10073000FE4FC491CC23A1F0162F81115BDFEC2F6B
:10074000F0E0EE0FFF1FE250FF4FA591B4918FB77D
:10075000F894EC91111108C0D095DE23DC938FBF83
:10076000DF91CF911F910895DE2BF8CFCF93DF93C8
:1007700090E0FC01E25AFE4F249182549E4FFC010E
:1007800084918823C9F090E0880F991FFC01EC51F7
:10079000FF4FA591B491FC01E250FF4FC591D49158
:1007A00061110DC09FB7F8948C91209582238C9392
:1007B0008881282328839FBFDF91CF9108956230DD
:1007C00051F49FB7F8943C91822F809583238C93AA
:1007D000E8812E2BEFCF8FB7F894EC912E2B2C9332
:1007E0008FBFEACF1F93CF93DF93182FEB0161E008
:1007F000BDDF209731F460E0812FDF91CF911F9111
:1008000088CFCF3FD10511F461E0F6CFE12FF0E0C2
:10081000E85EFE4FE491E150E23108F0B3C0F0E051
:100820008827EA5EFB4F8F4F0C940A462804300459
:1008300035043F044904C20453045B0463046D049B
:100840007704810490049A04C204A404AE04B8049A
:1008500084B5806884BDC7BDDF91CF911F91089595
:1008600084B5806284BDC8BDF7CF80918000806868
:1008700080938000D0938900C0938800EDCF809151
:100880008000806280938000D0938B00C0938A00A8
:10089000E3CF80918000886080938000D0938D00AA
:1008A000C0938C00D9CF8091B00080688093B00055
:1008B000C093B300D1CF8091B00080628093B0002C
:1008C000C093B400C9CF809190008068809390005D
:1008D000D0939900C0939800BFCF80919000806220
:1008E00080939000D0939B00C0939A00B5CF8091E5
:1008F0009000886080939000D0939D00C0939C00EE
:10090000ABCF8091A00080688093A0008091A00070
:100910008F7B8093A000D093A900C093A8009CCFA8
:100920008091A00080628093A000D093AB00C09320
:10093000AA0092CF8091A00088608093A000D093FD
:10094000AD00C093AC0088CF809120018068809377
:100950002001D0932901C09328017ECF80912001EE
:10096000806280932001D0932B01C0932A0174CF21
:1009700080912001886080932001D0932D01C09345
:100980002C016ACFC038D1050CF03ECF34CF3FB731
:10099000F89480918D0990918E09A0918F09B09162
:1009A000900926B5A89B05C02F3F19F00196A11DFF
:1009B000B11D3FBFBA2FA92F982F8827BC01CD01A9
:1009C000620F711D811D911D42E0660F771F881F08
:1009D000991F4A95D1F708958F929F92AF92BF9237
:1009E000CF92DF92EF92FF926B017C01D0DF4B013F
:1009F0005C01C114D104E104F104B1F0C8DF68194D
:100A000079098A099B09683E73408105910588F33D
:100A100021E0C21AD108E108F10888EE880E83E0CF
:100A2000981EA11CB11CE5CFFF90EF90DF90CF90F6
:100A3000BF90AF909F908F9008952FB7F8946091DA
:100A4000890970918A0980918B0990918C092FBF37
:100A50000895FC0184819581A681B7818093610905
:100A600090936209A0936309B0936409808591858E
:100A7000A285B3858093650990936609A093670961
:100A8000B0936809828D938DA48DB58D809369098B
:100A900090936A09A0936B09B0936C09CEDF6093C1
:100AA0007C0970937D0980937E0990937F09089556
:100AB0000F931F93CF93DF93C0DFAB01E0914E12F2
:100AC000F0914F123197E930F10518F5C0915012AD
:100AD000D091511200915212109153122091541240
:100AE00030915512DC01CA01801B910BA20BB30B94
:100AF0008C019D018827E058FA4F8F4F0C940A46CD
:100B00009105BF05CC05F7052206600692069F06F3
:100B1000AC0660E080914C12DF91CF911F910F9154
:100B2000F8CD6091581270915912CE010E94F7458C
:100B3000FC01EE0FFF1FE459FD4E80819181092ECB
:100B4000000CAA0BBB0B80179107A207B30770F428
:100B50002196D0935112C09350126FDF60935212BE
:100B600070935312809354129093551260915012C7
:100B7000709151126095709561707727CBCF60911D
:100B80005A1270915B12CE010E94F745FC01EE0FE4
:100B9000FF1FE059FD4ED1CF60915C1270915D1244
:100BA000CE010E94F745FC01EE0FFF1FE458FD4EF9
:100BB00080819181092E000CAA0BBB0B8017910735
:100BC000A207B30790F439DF609352127093531267
:100BD000809354129093551280915012909151121B
:100BE0000196909351128093501261E093CF6091DF
:100BF0005E1270915F12CE010E94F745FC01EE0F6C
:100C0000FF1FE258FD4E80819181092E000CAA0B36
:100C1000BB0B80179107A207B30708F0A7CF0DDF22
:100C20006093521270935312809354129093551202
:100C3000809150129091511201969093511280938D
:100C4000501294CF6091601270916112CE010E9497
:100C5000F745FC01EE0FFF1FEA57FD4E80819181A1
:100C6000092E000CAA0BBB0B80179107A207B30734
:100C700090F4E3DE609352127093531280935412F7
:100C80009093551280915012909151120196909329
:100C900051128093501260915012709151128091B4
:100CA0006012909161126817790709F063CF109272
:100CB0004F1210924E12DF91CF911F910F91089514
:100CC0006091621270916312CE010E94F745FC019F
:100CD000EE0FFF1FEE56FD4E80819181092E000C14
:100CE000AA0BBB0B80179107A207B30790F4A5DEF0
:100CF0006093521270935312809354129093551232
:100D000080915012909151120196909351128093BC
:100D10005012609150127091511280916212909114
:100D20006312C1CF6091641270916512CE010E946E
:100D3000F745FC01EE0FFF1FEA56FD4E64CF6091B0
:100D4000661270916712CE010E94F745FC01EE0F0A
:100D5000FF1FE655FD4E57CF6091681270916912E2
:100D6000CE010E94F745FC01EE0FFF1FE654FD4E39
:100D70004ACF089508950895AF92BF92CF92DF921F
:100D8000EF92FF920F931F93CF93DF936C017B0140
:100D90008B01040F151FEB015E01AE18BF08C017D1
:100DA000D10759F06991D601ED91FC910190F08144
:100DB000E02DC6011995892B79F7C501DF91CF91F7
:100DC0001F910F91FF90EF90DF90CF90BF90AF9069
:100DD0000895FC01A089B1898C91A689B78982FD0B
:100DE0000FC09C91818D8F5F8F73228D821749F088
:100DF000A18DAE0FBF2FB11D5D969C93818F08957D
:100E00008C910895FC01538D448D252F30E0842F63
:100E100090E0821B930B541710F0CF960895019722
:100E20000895FC01918D828D981761F0A28DAE0F0F
:100E3000BF2FB11D5D968C91928D9F5F9F73928F96
:100E400090E008958FEF9FEF0895FC01918D828DC2
:100E5000981731F0828DE80FF11D858D90E008958F
:100E60008FEF9FEF0895FC01918D228D892F90E0E7
:100E7000805C9F4F821B91098F73992708958BE1A6
:100E80009AE0F1DF21E0892B09F420E0822F089518
:100E900088EB9AE0E8DF21E0892B09F420E0822F3B
:100EA000089585E59BE0DFDF21E0892B09F420E050
:100EB000822F089582EF9BE0D6DF21E0892B09F491
:100EC00020E0822F0895FC01A48DA80FB92FB11D39
:100ED000A35ABF4F2C91848D90E001968F73992770
:100EE000848FA689B7892C93A089B1898C9183704E
:100EF00080648C93938D848D981306C00288F38947
:100F0000E02D80818F7D80830895EF92FF920F9373
:100F10001F93CF93DF93EC0181E0888F9B8D8C8DA5
:100F200098131AC0E889F989808185FF15C09FB799
:100F3000F894EE89FF896083E889F989808183705C
:100F4000806480839FBF81E090E0DF91CF911F910B
:100F50000F91FF90EF900895F62E0B8D10E00F5F2C
:100F60001F4F0F731127E02E8C8D8E110BC00FB603
:100F700007FCFACFE889F989808185FFF5CFCE019A
:100F8000A2DFF2CFEB8DEC0FFD2FF11DE35AFF4FE7
:100F9000F0829FB7F8940B8FEA89FB898081806289
:100FA000D0CFCF93DF93EC01888D8823B1F0AA894D
:100FB000BB89E889F9898C9185FD03C0808186FD14
:100FC0000CC00FB607FCF7CF8C9185FFF2CF808164
:100FD00085FFEDCFCE0177DFEACFDF91CF91089586
:100FE00080E090E0892B21F065DF81110E940000F4
:100FF00080E090E0892B21F054DF81110E940000F5
:1010000080E090E0892B21F043DF81110E940000F5
:1010100080E090E0892B21F032DF81110C940000F8
:10102000089508958091710990917209891B990B17
:10103000089590E02091C909233339F40C96982F34
:10104000990F990F990F80E008954896F8CFCF93A4
:10105000DF931F92CDB7DEB76983DC01ED91FC9180
:101060000280F381E02D41E050E0BE016F5F7F4FD1
:1010700019950F90DF91CF910895FC019485FB01A4
:101080008485981303C081E0983008F080E00895CB
:10109000CF93DF931F92CDB7DEB76983DC01ED916B
:1010A000FC910280F381E02D41E050E0BE016F5FD2
:1010B0007F4F19950F90DF91CF910895FC018485A2
:1010C00095850895FC0184899589089528EC33E07D
:1010D000FC0131832083FB01408951896289738936
:1010E000FC0142835383648375830895DC01ED9191
:1010F000FC91048CF58DE02D1994FC0120812EBD0E
:101100009B012150310941F051810DB407FEFDCF03
:101110004EB55EBD4193F5CF61507109860F971FA3
:101120000DB407FEFDCF2EB5FC0120830895E0919C
:101130003D09F0913E09808190913C09892B808383
:101140000895E0913D09F0913E09908180913C091C
:10115000809589238083089508958EBD00000DB485
:1011600007FEFDCF8EB50895AF92BF92CF92DF926A
:10117000EF92FF920F931F93CF93DF9300D000D095
:101180001F921F92CDB7DEB78C017B016A0180915F
:10119000C9098333B1F45801A40EB51EA016B106D7
:1011A00009F463C0CEDF80EFD8DF812FD6DF802F38
:1011B000D4DF0F5F1F4FF70181917F01CEDFB7DFD3
:1011C000EDCF5B01A40EB51E8433A9F4BADF1983F9
:1011D0000A838D2D80688B83CC8264E070E0CE0121
:1011E00001968BDFAE14BF0409F43EC0F701819174
:1011F0007F01B3DFF7CFA5DF0F3F110509F028F41A
:1012000019820A8384E08B830CC017FD17C01982F2
:101210000A8333E0169507953A95E1F7007E0C6056
:101220000B8386E0C816D10490F5F701DE01149611
:10123000EA15FB0599F081918D93FACFC80126E05C
:10124000969587952A95E1F7807E19830A83011583
:10125000104C10F48461D7CF8C61D5CFB6016D5F8F
:101260007F4FCE01019649DF62DFC60128960FB697
:10127000F894DEBF0FBECDBFDF91CF911F910F91CC
:10128000FF90EF90DF90CF90BF90AF90089563E014
:1012900070E0CE01019631DFF70181917F015DDFC2
:1012A000AE14BF04C9F7E0CFDA01E0914009F0E0E5
:1012B000FE2FEE27E60FF71F90E0982F8827A90151
:1012C000BD018E0F9F1F50CFCF93DF931F921F92B0
:1012D000CDB7DEB779836A8322E030E0AE014F5F9D
:1012E0005F4F60E170E0E0DF0F900F90DF91CF91F2
:1012F0000895CF93DF931F921F92CDB7DEB7798306
:101300006A8322E030E0AE014F5F5F4F64E070E03F
:10131000CBDF0F900F90DF91CF910895FF920F9345
:101320001F93CF93DF93EB01FC01178A168A2A8162
:10133000211109C02B81211106C02C81211103C06C
:101340002D812223F1F041155105D9F08A01FC01CC
:10135000F08C80E591E00E946801AE014E5F5F4F26
:1013600024E030E06CE070E08F2D9EDFB8018F2D1F
:10137000ABDF81E090E0DF91CF911F910F91FF9063
:10138000089580E0F7CFCF93DF931F92CDB7DEB7FC
:101390002091400930E0322F2227260F371F90E09E
:1013A000982F8827498341E050E0BE016F5F7F4F4F
:1013B000820F931FD9DE0F90DF91CF910895CF93C5
:1013C000DF931F92CDB7DEB7898341E050E0BE01C5
:1013D0006F5F7F4F90E080E0C7DE0F90DF91CF918D
:1013E00008950895E091720980917109E81730F429
:1013F000F0E0EF5BF64F808190E008958FEF9FEF74
:10140000089590917209809171092FEF3FEF98171D
:1014100048F4E92FF0E0EF5BF64F208130E09F5F6A
:1014200090937209C901089590E080E00895209199
:101430001309260F3327331F21323105ECF4209195
:10144000F109FC0190E080E0243069F082E0089529
:10145000A09113092191AC014D50574FA40FB52F06
:10146000B11D2C930196861798F380911309680F8C
:101470006093130980E0089581E00895CF92DF9290
:10148000EF92FF920F931F93CF93DF937C01CB01D9
:101490008A012091F709222389F0EB016B01C40E28
:1014A000D51ECC15DD0561F06991D701ED91FC9158
:1014B0000190F081E02DC7011995F3CF642FB7DFBC
:1014C000C801DF91CF911F910F91FF90EF90DF90B6
:1014D000CF900895CF93DF931F92CDB7DEB7698386
:1014E0002091F7092223F9F020911A0A203258F0AE
:1014F00021E030E0FC013383228390E080E00F9014
:10150000DF91CF9108958091F809E82FF0E0E7503E
:10151000F64F998190838F5F8093F80980931A0A20
:1015200081E090E0ECCF61E0CE01019680DFF8CF62
:101530001092F10981E08093F0091092CB0961E0EB
:1015400084E1E7D861E085E1E4D8E9EBF0E080816F
:101550008E7F808380818D7F808388E48093B80034
:1015600085E48093BC000895CF93DF9391E090933E
:10157000F2088823A1F0C091B800D091BA00809100
:10158000BC008A7B8093BC0060E084E1C2D860E04C
:1015900085E1BFD8CDDFD093BA00C093B800DF910A
:1015A000CF9108958F929F92AF92BF92CF92DF9288
:1015B000EF92FF920F931F93CF93DF93D0911A0A6C
:1015C000D13208F0D0C0182FC091190AE0D96B01B0
:1015D0007C018091F109811168C082E08093F1095A
:1015E0001093F0098FEF8093EF091092EE09D093DA
:1015F000ED09A9EFB9E0EDECF9E080E0D8138CC07B
:101600001092CC098091CC09CC0FC82BC093CC0987
:101610008091CB09813009F083C01092CB09B7D9F2
:101620006B017C018091CC098093BB008091F30910
:101630009091F409A091F509B091F609892B8A2BB4
:101640008B2B99F0A4D90091F3091091F409209102
:10165000F5093091F6096C197D098E099F09061765
:1016600017072807390708F440C08091BC0083FDA4
:10167000D9CF85EC8093BC008AD96B017C01809125
:10168000F109823009F44EC08091EF098F3F09F4CF
:101690006CC08091EF09803209F469C08091EF0934
:1016A000803309F466C084E024C08091F3099091EE
:1016B000F409A091F509B091F609892B8A2B8B2B9F
:1016C00009F487CF64D98090F3099090F409A09031
:1016D000F509B090F6096C197D098E099F098616E7
:1016E0009706A806B90608F074CF8091F2093CDF8E
:1016F00085E01092F80910921A0A1092F709DF910A
:10170000CF911F910F91FF90EF90DF90CF90BF90FE
:10171000AF909F908F9008959D9191938F5F6ECF22
:1017200085EEA8CF8091F3099091F409A091F50975
:10173000B091F609892B8A2B8B2B09F4A0CF27D9DE
:101740000091F3091091F4092091F5093091F609FF
:101750006C197D098E099F09061717072807390795
:1017600008F08DCFC2CF81E0C4CF80E0C2CF82E04D
:10177000C0CF83E0BECFCF93DF93EA0191E0909397
:10178000F7098093190A1092F80910921A0A85EC49
:101790009CE0A0DE688185EC9CE09CDE81E002DFBD
:1017A00091E0811190E0892FDF91CF9108950F93FF
:1017B0001F93CF93DF93EC018B0177FF2CC08A85B9
:1017C0009B850097B9F460E08E810E94890388852B
:1017D00061E0811101C060E089810E948903662770
:1017E0007727601B710B8881DF91CF911F910F913B
:1017F0000C94F203019799F78A819885992331F027
:1018000061E00E94890360E08B81E7CF60E00E9485
:10181000890361E0F9CF672B19F18A859B850097D1
:1018200071F460E08E810E948903888560E08111F7
:1018300001C061E089810E948903B801D4CF01977A
:10184000E1F78A819885992331F060E00E9489034D
:1018500061E08B81F0CF61E00E94890360E0F9CF05
:1018600070E060E088810E94F2038A859B85009782
:1018700041F461E08E81DF91CF911F910F910C9423
:101880008903019739F460E08A810E94890360E04E
:101890008B81F1CFDF91CF911F910F9108958EE150
:1018A00094E008958FE394E00895FC0186A197A148
:1018B000089583E594E0089584E794E00895FC0199
:1018C00086899789089582E894E0089583EA94E0F0
:1018D0000895FC01838594850895DB012C91FC011A
:1018E00020870184F285E02D0696199481EB94E01F
:1018F000089582ED94E00895FC018485958508950E
:1019000082EE94E0089583E095E00895FC018485DB
:101910009585089583E195E0089584E395E0089521
:10192000FC018785908908958AE495E008958BE607
:1019300095E00895FC018685978508950F931F9380
:10194000CF93DF9300D000D000D01F92CDB7DEB789
:101950008C0181EE92E09A8389831B821C821D8216
:101960001E821F82188619861A86D801ED91FC9175
:101970000190F081E02DAE014F5F5F4F6AE070E0B3
:10198000C80119955AD8F801618F728F838F948F8F
:101990002A960FB6F894DEBF0FBECDBFDF91CF9170
:1019A0001F910F91089589569B4FFC0180810895E6
:1019B000CF92DF92EF92FF92DC011D921D921D9259
:1019C0001C921397FB0130E020E0419150E0022E81
:1019D00002C0440F551F0A94E2F7052E000C660B57
:1019E000770BCD90DD90ED90FC9013974C295D29FD
:1019F0006E297F294D935D936D937C931397285F98
:101A00003F4F2032310509F7FF90EF90DF90CF90E4
:101A10000895FC0140835183128213820895089532
:101A20000895FC018281882339F08DE20E946103D0
:101A300061E0892B39F008958DE20E946103892BC2
:101A4000D1F360E08DE20C948903FC01828188234C
:101A500039F08AE20E94610361E0892B39F0089530
:101A60008AE20E946103892BD1F360E08AE20C9440
:101A70008903109261091092620910926309109211
:101A80006409109265091092660910926709109214
:101A900068091092690910926A0910926B091092F4
:101AA0006C09E7EEF2E1148A158A168A178A148EF9
:101AB000158E168E178E108E118E128E138E10A20A
:101AC00011A212A213A214A215A216A217A2EEEB43
:101AD000F2E1148A158A168A178A148E158E168ECC
:101AE000178E108E118E128E138E10A211A212A2BA
:101AF00013A214A215A216A217A208950F931F9362
:101B0000FC0186819781A085B185428553856485D6
:101B100075850281138124813581E7EEF2E100872A
:101B20001187228733874487558766877787808B1D
:101B3000918BA28BB38BEEEBF2E1008711872287AA
:101B400033874487558766877787808B918BA28BF5
:101B5000B38B1F910F910895DC01611141C0ED918C
:101B6000FD918081ED91FD919081ED91FD916C91C0
:101B700063708E2309F064609F2309F06860EBECCA
:101B8000FDE0E60FF11D659565956D936D917D9175
:101B90008D919D91099423C01AC012C016C010C027
:101BA0001EC009C014C013C006C019C009C00DC0B2
:101BB00007C00DC014C062507040804090400BC000
:101BC000615070408040904006C06E5F01C06F5F02
:101BD0007F4F8F4F9F4F9E938E937E936E9308956A
:101BE000ED91FC911197908114962C911497129677
:101BF000ED91FC911397808115963C911597832365
:101C00001696EC911697E370922309F0E460811127
:101C1000E8608E2F90E09595879595958795169617
:101C20008C931697E150EE3028F5F0E08827E45EBB
:101C3000F14F8F4F0C940A462A0E3B0E460E3B0E78
:101C40003A0E510E2A0E2A0E510E3A0E3B0E460E39
:101C50003B0E2A0E17964D915D916D917C911A97CE
:101C60004F5F5F4F6F4F7F4F17964D935D936D930F
:101C70007C931A97089517964D915D916D917C9183
:101C80001A974150510961097109EECF17964D918C
:101C90005D916D917C911A974E5F5F4F6F4F7F4FB3
:101CA000E3CF17964D915D916D917C911A974250BB
:101CB000510961097109D8CF61E08091AA0890911A
:101CC000AB084ACF61E08091A8089091A90844CF61
:101CD00061E08091A6089091A7083ECF60E08091D6
:101CE000A4089091A50838CF60E08091A208909157
:101CF000A30832CF60E08091A0089091A1082CCF7A
:101D00004F925F926F927F92AF92BF92CF92DF928B
:101D1000EF92FF920F931F93CF93DF93CDB7DEB770
:101D20002E970FB6F894DEBF0FBECDBF9E878D876E
:101D3000FC018789908DA18DB28D42A153A164A130
:101D400075A1840F951FA61FB71F45A456A467A4AD
:101D500070A8480E591E6A1E7B1E0E941D056D83C9
:101D60007E838F839887ED85FE8584819581A6810A
:101D7000B7812D813E814F815885281B390B4A0B35
:101D80005B0BCA01B9010E94404320E030E64AE6FD
:101D900057E40E94044569877A878B879C87D30123
:101DA000C201BB0F880B982FDC0189839A83AB8318
:101DB000BC839201A3016981762F862F962FAD8572
:101DC000BE851896AC9018971996BC9019971A96DC
:101DD000CC901A971B96DC901B971C96EC901C9746
:101DE0001D96FC901D971E960C911E971F961C9198
:101DF0000E9412460E949D452D813E814F8158854B
:101E0000AD85BE8514962D933D934D935C931797A6
:101E100018964C92189719965C9219971A966C928C
:101E20001A971B967C921B97E9811C96EC931C9742
:101E30001D96EC931D971E96EC931E971F96EC93A0
:101E40001F972D913D914D915C910E9404452985EC
:101E50003A854B855C850E940445AD85BE85D1964B
:101E60002C91211190582E960FB6F894DEBF0FBE1C
:101E7000CDBFDF91CF911F910F91FF90EF90DF9039
:101E8000CF90BF90AF907F906F905F904F900895EC
:101E90008CE795E008958DE995E00895FC01DB015C
:101EA0004D915D916D917C9113974283538364832F
:101EB000758314964D915D916D917C911797468332
:101EC00057836087718718968D919D910D90BC9175
:101ED000A02D82879387A487B5878CE090E0089532
:101EE0000F931F93CF93DF938C01EC012696CE01C5
:101EF000D5DFD8015496ED91FC91CE01DF91CF91C1
:101F00001F910F911994DC01FB0112963C911297DD
:101F100013962C91139714969C91149715968C9167
:101F20001597308321839283838316963C9116976D
:101F300017962C91179718969C91189719968C9133
:101F4000199734832583968387831A963C911A9731
:101F50001B962C911B971C969C911C971D968C91FF
:101F600030872187928783878CE090E008958BEA01
:101F700095E008958CEC95E00895FB012081FC012B
:101F80002283FB012181FC01238382E090E00895FC
:101F9000FC012281FB012083FC018381FB01818301
:101FA00082E090E0089582EE95E0089583E096E067
:101FB0000895FB012081FC012283FB012181FC01AA
:101FC000238382E090E00895FC012281FB012083BD
:101FD000FC018381FB01818382E090E008954F92B0
:101FE0005F926F927F928F929F92AF92BF92EF9289
:101FF000FF920F931F93CF93DF9300D01F92CDB723
:10200000DEB77C018B01CE010196D2DC89819A81F9
:10201000AB81BC814C015D0124E0820E911CA11CAE
:10202000B11CA8014D5F5F4FFA0124E030E02901A7
:10203000712C612C481459046A047B0428F46181D2
:1020400061932F5F3F4FF3CF080F191FF8011382E1
:10205000F70153834283F8012481F7012483F801B7
:102060002581F701258306960F900F900F900F9012
:10207000DF91CF911F910F91FF90EF90BF90AF90A4
:102080009F908F907F906F905F904F9008950F93E7
:102090001F93CF93DF938C01EC012696CE019FDF37
:1020A000D8011C96ED91FC91CE01DF91CF911F914B
:1020B0000F9119944F925F926F927F928F929F929D
:1020C000AF92BF92EF92FF920F931F93CF93DF9344
:1020D00000D01F92CDB7DEB77C018B01CE010196F7
:1020E00067DC89819A81AB81BC814C015D0124E070
:1020F000820E911CA11CB11CA8014D5F5F4FFA011B
:1021000024E030E02901712C612C481459046A0440
:102110007B0428F4618161932F5F3F4FF3CF080F59
:10212000191FF8011382F70153834283F8012481B8
:1021300030E0F70135832483F8014581342BF70122
:1021400035832483F8012681F701268307960F90B3
:102150000F900F900F90DF91CF911F910F91FF90F3
:10216000EF90BF90AF909F908F907F906F905F9017
:102170004F9008950F931F93CF93DF938C01EC0141
:102180002696CE0197DFD8011D96ED91FC91CE01E8
:10219000DF91CF911F910F91199489E196E00895F5
:1021A0008AE396E00895FC0189EC92E091838083B4
:1021B000128213821482158216821782108611866B
:1021C00012861386148615860895FB012081FC0172
:1021D000228381E090E00895FC018281FB018083ED
:1021E00081E090E00895FB01208130E0FC01338321
:1021F0002283FB014181342BFC013383228382E063
:1022000090E008950F931F93CF93DF938C01EC011F
:102210002696CE01E8DFD8011A96ED91FC91CE0109
:10222000DF91CF911F910F911994FC012281FB0145
:102230002083FC018381FB01818382E090E008958B
:1022400080E596E0089581E796E00895FC01DB01C2
:102250004D915D916D917C9113974283538364837B
:10226000758314964D915D916D917C91179746837E
:1022700057836087718718968D919D910D90BC91C1
:10228000A02D82879387A487B5878CE090E008957E
:10229000DC01FB0112963C91129713962C91139737
:1022A00014969C91149715968C91159730832183E1
:1022B0009283838316963C91169717962C911797C5
:1022C00018969C91189719968C91199734832583A9
:1022D000968387831A963C911A971B962C911B978D
:1022E0001C969C911C971D968C9130872187928714
:1022F00083878CE090E008954F925F926F927F9277
:102300008F929F92AF92BF92EF92FF920F931F9383
:10231000CF93DF9300D01F92CDB7DEB77C018B0146
:10232000CE01019645DB89819A81AB81BC814C014C
:102330005D0124E0820E911CA11CB11CA8014D5F1F
:102340005F4FFA0124E030E02901712C612C481420
:1023500059046A047B0428F4618161932F5F3F4F25
:10236000F3CFF801E80FF91F1382F701538342837B
:1023700004960F900F900F900F90DF91CF911F91C7
:102380000F91FF90EF90BF90AF909F908F907F90B4
:102390006F905F904F9008950F931F93CF93DF93AB
:1023A0008C01EC012696CE01A7DFD8011A96ED919B
:1023B000FC91CE01DF91CF911F910F91199486E886
:1023C00096E0089589EA92E0089587EA96E00895F4
:1023D00088EC96E008954F925F926F927F928F9271
:1023E0009F92AF92BF92EF92FF920F931F93CF9362
:1023F000DF9300D01F92CDB7DEB77C018B01FB01CC
:102400008191BF01F7018283CE010196D1DA8981E2
:102410009A81AB81BC814C015D01F5E08F0E911C6E
:10242000A11CB11CA8014C5F5F4FFA0125E030E010
:102430002901712C612C481459046A047B0428F486
:10244000618161932F5F3F4FF3CFF801E80FF91FD0
:102450001482F7015483438305960F900F900F90D9
:102460000F90DF91CF911F910F91FF90EF90BF9050
:10247000AF909F908F907F906F905F904F90089556
:102480008BED96E008958CEF96E008954F925F9261
:102490006F927F928F929F92AF92BF92CF92DF9274
:1024A000EF92FF920F931F93CF93DF93CDB7DEB7D9
:1024B0002C970FB6F894DEBF0FBECDBF7C018B0109
:1024C000DB018C9190E0F7019383828311962C912C
:1024D000922B938382836E5F7F4FCE01019668DAE1
:1024E00089809A80AB80BC8024013501F6E04F0ED4
:1024F000511C611C711C98012B5F3F4FF90186E054
:1025000090E0AC0170E060E0441555056605770584
:1025100020F4418141930196F4CFB4016A5F7F4F6B
:10252000F801E80DF91D1582D70115963C932E93FD
:102530001497600F711FCE0105963ADABAE08B0E40
:10254000911C4D805E806F807884C401092C000C42
:10255000AA0BBB0B5C016D01A40CB51CC61CD71CDF
:10256000F801E80DF91DAF01401B510B70E060E070
:102570004A155B056C057D0538F42191AF01425089
:102580005109DA012C93EFCF480C591CB801640DA6
:10259000751DFB0131971082C4010197800F911FB7
:1025A000F70197838683CE01099602DA92012C5FA8
:1025B0003F4F89849A84AB84BC84A901032E000C0C
:1025C000660B770B480D591D6A1D7B1DF801E20F44
:1025D000F31FCF01801B910BB0E0A0E0841795079B
:1025E000A607B70728F48191DF0112978C93F1CFEA
:1025F000C901880D991DF801E80FF91FDF01119736
:102600001C9221503109020F131FD70119961C93F8
:102610000E9318972181428150E070E060E0BA018A
:1026200055274427522B2081422B2381722BF701FF
:10263000428753876487758704962C960FB6F89463
:10264000DEBF0FBECDBFDF91CF911F910F91FF90E5
:10265000EF90DF90CF90BF90AF909F908F907F9042
:102660006F905F904F90089585E197E0089586E31D
:1026700097E00895FC01DB014C9150E070E060E0D0
:10268000428353836483758311968C911197582BE1
:10269000428353836483758312968C911297682BBF
:1026A000428353836483758313968C911397782B9D
:1026B000428353836483758314964C91149750E03E
:1026C00070E060E0468357836087718715968C9130
:1026D0001597582B468357836087718716968C9180
:1026E0001697682B468357836087718717968C915E
:1026F000782B468357836087718788E090E0089540
:10270000DC01FB0112968C911297808313968C91B9
:102710001397818314968C911497828315968C91CC
:102720001597838316968C911697848317968C91B0
:102730001797858318968C911897868319968C9194
:10274000878388E090E00895CF92DF92EF92FF9226
:102750000F931F93FC01DB01C3800C2D10E030E0D0
:1027600020E045E036952795179507954A95D1F7CE
:102770000D931D932D933C9313978481C82ED12CD8
:10278000F12CE12C53E0CC0CDD1CEE1CFF1C5A9507
:10279000D1F7C02AD12AE22AF32ACD92DD92ED9216
:1027A000FC9213978581082F10E030E020E06BE069
:1027B000000F111F221F331F6A95D1F70C291D2905
:1027C0002E293F290D931D932D933C9313974681FA
:1027D00050E070E060E083E1440F551F661F771FF3
:1027E0008A95D1F74427552768777727042B152B2F
:1027F000262B372B0D931D932D933C9313974781D5
:1028000050E070E060E094E0440F551F661F771FB2
:102810009A95D1F7407F577066277727C680D12CCD
:10282000F12CE12C84E0F694E794D794C7948A9530
:10283000D1F74C295D296E297F2941155105610584
:102840007105A1F0405853406109710997E1440FA7
:10285000551F661F771F9A95D1F7402B512B622B7E
:10286000732B4D935D936D937C931397478150E049
:1028700070E060E0742F66275527442744275527CA
:10288000662770780D911D912D913C911397402BE7
:10289000512B622B732B4D935D936D937C93139708
:1028A00088E090E01F910F91FF90EF90DF90CF9024
:1028B0000895EF92FF920F931F93CF93DF938C01B4
:1028C0007B01BC016E5F7F4FC7013EDFEC01B801A9
:1028D0006A5F7F4FC7018C0F9D1F36DFC80FD91F5E
:1028E000B801665F7F4FC7018C0F9D1F2DDF8C0FD6
:1028F0009D1FDF91CF911F910F91FF90EF90089551
:10290000EF92FF920F931F93CF93DF937C018B0184
:102910000296CFDFEC01B801680F791FC70140961E
:10292000C8DFC80FD91FB8016C0F7D1FC7014E96B5
:10293000C0DF8C0F9D1FDF91CF911F910F91FF90F2
:10294000EF900895EF92FF920F931F93CF93DF9331
:102950007C01EB010296ADDF8C01BE01680F791F8F
:10296000C7014096A6DF800F911FDF91CF911F9185
:102970000F91FF90EF9008950F931F93CF93DF93E4
:102980008C01EC012696CE01DDDFD8019496ED9105
:10299000FC91CE01DF91CF911F910F9119948F92ED
:1029A0009F92AF92BF92CF92DF92EF92FF92CF931E
:1029B000DF93EC014A015B01DB01CA0147E1B595F8
:1029C000A795979587954A95D1F79927AA27BB2769
:1029D0000097A105B10521F080589C4FAF4FBF4F24
:1029E000188219821A82B501A40125E0440F551FEF
:1029F000661F771F2A95D1F74B83B501A40133E0F9
:102A000075956795579547953A95D1F74C83B501DC
:102A1000A401EBE07595679557954795EA95D1F731
:102A20004D83B501A401F3E17595679557954795D9
:102A3000FA95D1F74F706C017D0124E0CC0CDD1CC0
:102A4000EE1CFF1C2A95D1F74C294E836C017D01A9
:102A500034E0F594E794D794C7943A95D1F720E001
:102A600030E0A901C501B4010E943C4387FD0EC0BE
:102A7000CF8288E090E0DF91CF91FF90EF90DF90E0
:102A8000CF90BF90AF909F908F9008958C2D8068CD
:102A90008F83EFCFEF92FF920F931F93CF93DF932C
:102AA0007C018B01FC014281538164817581C801E5
:102AB00076DFEC01F7014681578160857185C80199
:102AC0008C0F9D1F6CDFC80FD91FF70142855385FE
:102AD00064857585C8018C0F9D1F61DF8C0F9D1F5C
:102AE000DF91CF911F910F91FF90EF900895EF929A
:102AF000FF920F931F93CF93DF937C018B0102967C
:102B0000C9DFEC01B801680F791FC7014096C2DF29
:102B1000C80FD91FB8016C0F7D1FC7014E96BADFD1
:102B20008C0F9D1FDF91CF911F910F91FF90EF9020
:102B30000895EF92FF920F931F93CF93DF937C0141
:102B4000EB010296A7DF8C01BE01680F791FC70158
:102B50004096A0DF800F911FDF91CF911F910F91C1
:102B6000FF90EF900895FC01768765870895DC015A
:102B7000ED91FC91068CF78DE02D199591E0892758
:102B80000895862F089581E08627089521E0FC01AD
:102B90008485883008F020E0822F08952F923F929C
:102BA0004F925F926F927F928F929F92AF92BF925D
:102BB000CF92DF92EF92FF920F931F93CF93DF9309
:102BC00000D000D000D01F921F92CDB7DEB7E82E04
:102BD000D62EF42E3D832C8318010E941D054B0137
:102BE0005C012E2D220F2B830F2DC12C1B8611E093
:102BF0004F2D50E05A834983C101B0E0A0E08E839D
:102C00009F83A887B9871093F709E092190A109259
:102C1000F80910921A0A6D2D85EC9CE00E946A0A50
:102C200081E00E94D20A1093F7091092F8091092DD
:102C30001A0A0E94C7042B013C018091F1098111FD
:102C40006DC00A87013210F090E29A871093F10963
:102C50001093F009AFEFA093EF091092EE098A8567
:102C600081508093ED091093CC098091CC09BB81F0
:102C70008B2B8093CC098091CB09813009F091C0D6
:102C80001092CB090E94C7042B013C018091CC0912
:102C90008093BB008091F3099091F409A091F5090C
:102CA000B091F609892B8A2B8B2BA1F00E94C704C7
:102CB0002091F3093091F4094091F5095091F609FA
:102CC00064197509860997092617370748075907B0
:102CD00008F445C08091BC0083FDD8CF25EC20933B
:102CE000BC000E94C7042B013C018091F109813096
:102CF00009F45BC08091EE094A85841718F450915D
:102D0000EE095A87ADECB9E0E1E4F9E080E09A859C
:102D1000891751F19D9191938F5FF9CF8091F309BC
:102D20009091F409A091F509B091F609892B8A2BAD
:102D30008B2B09F482CF0E94C7042091F3093091B4
:102D4000F4094091F5095091F6096419750986094D
:102D50009709261737074807590708F06ECF809163
:102D6000F2090E94B40A1A8610927209AA85A093E9
:102D7000710980917209BA85B81709F448C0211405
:102D80003104A9F585EC9CE00E94010AEC81FD81EB
:102D90002B85E20FF11D27FDFA9580832F5F2B878E
:102DA000E8CF35EE3093BC009CCF8091F309909131
:102DB000F409A091F509B091F609892B8A2B8B2B88
:102DC00009F493CF0E94C7042091F3093091F409CC
:102DD0004091F5095091F60964197509860997091A
:102DE000261737074807590708F07FCFB8CF0E944A
:102DF0001D05681979098A099B092E813F8148853B
:102E00005985621773078407950708F4BBCFCF0C69
:102E10000F19CF1408F4F7CE21143104D9F00E9411
:102E20001D05AB01BC01481959096A097B09C1019B
:102E3000B0E0A0E0481759076A077B0758F03B85C8
:102E4000832F330F990B49815A818417950714F406
:102E50005FEF5B878B852B960FB6F894DEBF0FBEB6
:102E6000CDBFDF91CF911F910F91FF90EF90DF9039
:102E7000CF90BF90AF909F908F907F906F905F901A
:102E80004F903F902F900895EF92FF920F931F93D2
:102E9000CF93DF931F92CDB7DEB77C0108EE13E02E
:102EA0009E012F5F3F4F41E065E7FC01808176DEA8
:102EB000882339F089818E7790E095958795F70181
:102EC0008183F701918181E0983329F0913719F0DE
:102ED0009C3009F080E00F90DF91CF911F910F910E
:102EE000FF90EF900895BF92CF92DF92EF92FF9202
:102EF0000F931F93CF93DF931F921F92CDB7DEB72F
:102F0000F82EE62EC42EB22ED02E08EE13E09E012F
:102F10002E5F3F4F41E042DE882399F18C2D8B19C3
:102F2000990BAC014F5F5F4F81E090E002C0880FCA
:102F3000991FBA94E2F70197042E01C0880F0A94F2
:102F4000EAF70D2D01C0000F4A95EAF7982F9095EA
:102F50002A8192238023892B8A838983AE014F5F44
:102F60005F4F6E2D8F2D0E94BB0B0F900F90DF9146
:102F7000CF911F910F91FF90EF90DF90CF90BF9076
:102F8000089580E0F2CFEF92FF920F931F93CF93BB
:102F9000DF931F921F92CDB7DEB77C0101E023E0E3
:102FA00042E06BE6FC0180819EDF00E022E044E02D
:102FB0006BE1F701808197DF22E044E06CE1F701EB
:102FC000808191DFF701F08008EE13E09E012E5F13
:102FD0003F4F41E06BE68F2DE1DD8A818F7B8A8355
:102FE0008983AE014F5F5F4F6BE68F2D0E94BB0B55
:102FF0000F900F90DF91CF911F910F91FF90EF9065
:103000000895FB0101900020E9F73197AF01461BBD
:10301000570BDC01ED91FC910280F381E02D1994B6
:103020008F929F92AF92BF92EF92FF920F931F9356
:10303000CF93DF93CDB7DEB7A1970FB6F894DEBF7D
:103040000FBECDBF7C01FA01CB0119A2223008F4DA
:103050002AE08E010F5D1F4F822E912CB12CA12CE6
:10306000BF01A50194010E946444F901CA016A30BC
:1030700004F5605DD8016E938D01232B242B252B45
:1030800079F790E080E0109719F0BD01C701B9DF32
:10309000A1960FB6F894DEBF0FBECDBFDF91CF91E2
:1030A0001F910F91FF90EF90BF90AF909F908F90E6
:1030B0000895695CDFCF8F929F92AF92BF92CF92BB
:1030C000DF92EF92FF920F931F93CF93DF937C01D8
:1030D000EB016C0182E0C80ED11C4701E5E08E0EC9
:1030E000911C10E000E0F60141916F0150E070E0AA
:1030F00060E02AE0CE0194DF5C01E881F981019073
:10310000F081E02D6EE2CE0119958A0D9B1D080F0E
:10311000191FC814D90439F7F701458150E070E050
:1031200060E02AE0CE017CDF800F911FDF91CF911C
:103130001F910F91FF90EF90DF90CF90BF90AF90D5
:103140009F908F9008954F925F926F927F928F928F
:103150009F92AF92BF92CF92DF92EF92FF920F9326
:103160001F93CF936B017C01742EAC019B010E94D5
:10317000F34564E477E0811126C046015701E894E5
:10318000B7F82FEF3FEF4FE75FE7C501B4010E94AB
:10319000F34581110CC02FEF3FEF4FE75FE7C5010B
:1031A000B4010E943C4368E477E0181664F02FEF06
:1031B0003FEF4FE75FE4C701B6010E94EF451816E5
:1031C000A4F46CE477E082EF9BE0CF911F910F9124
:1031D000FF90EF90DF90CF90BF90AF909F908F9037
:1031E0007F906F905F904F900CCF2FEF3FEF4FE7A6
:1031F0005FECC701B6010E943C4387FDE2CF20E0AF
:1032000030E0A901C701B6010E943C4310E000E094
:1032100087FF0AC06DE282EF9BE00E9485078C0168
:10322000F7FAF094F7F8F094C0E060E070E080E026
:103230009FE37C1641F020E030E040E251E40E9440
:103240000445CF5FF6CFA70196010E94A0442B0151
:103250003C010E9471454B015C012AE0BC01A401C4
:1032600082EF9BE0DDDE7C01E00EF11ECC23C9F194
:10327000C501B4010E9440439B01AC01C301B201EE
:103280000E949F444B015C016EE282EF9BE00E9432
:103290008507E80EF91EC15020F120E030E040E241
:1032A00051E4C501B4010E94A1432B013C010E94DD
:1032B00071454B01B12CA12C2AE0B501A40182EF8C
:1032C0009BE0AEDEE80EF91EC501B4010E9440434A
:1032D0009B01AC01C301B2010E949F444B015C0100
:1032E000DACFC701CF911F910F91FF90EF90DF9040
:1032F000CF90BF90AF909F908F907F906F905F9096
:103300004F900895CF93DF9362EF7BE0D4DEEC0122
:1033100060E577E082EF9BE074DE8C0F9D1FDF910C
:10332000CF9108950F931F93CF93DF93EC0169DE44
:103330008C0160E577E0CE0164DE800F911FDF91A4
:10334000CF911F910F9108950C94CB46EF92FF926D
:103350000F931F93CF93DF937C018B01DC011296B7
:10336000ED91FC91EF0109900020E9F72197CE1B28
:10337000DF0BAE0170E060E0C8010E94090DF701AB
:1033800062817381AE01C80104960E943048F80141
:10339000EC0FFD1FD70114968C911497848315961A
:1033A0008C918583CE010696DF91CF911F910F916D
:1033B000FF90EF900895EF92FF920F931F93CF939A
:1033C000DF937C018B01DC011296ED91FC91EF0102
:1033D00009900020E9F72197CE1BDF0BAE0170E0CA
:1033E00060E0C8010E94090DF70162817381AE019E
:1033F000C80104960E943048F801EC0FFD1FD70168
:1034000014968C911497848315968C9115978583C7
:1034100016968C918683CE010796DF91CF911F91EE
:103420000F91FF90EF900895EF92FF920F931F93EB
:10343000CF93DF937C018B01DC011296ED91FC911F
:10344000EF0109900020E9F72197CE1BDF0BAE01B9
:1034500070E060E0C8010E94090DF701628173818C
:10346000AE01C80104960E943048CE010496DF9157
:10347000CF911F910F91FF90EF9008954F925F921F
:103480006F927F928F929F92AF92BF92CF92DF9274
:10349000EF92FF920F931F93CF93DF93EC017B0189
:1034A0008A81FB0180838B8181838C8182838D81E2
:1034B00083833496412C512C320104E010E09F01AB
:1034C0002F5F3F4FCF010296DF011396A8010C5FDB
:1034D0001F4F8A809B80AC80BD80481459046A04C9
:1034E0007B04C8F4AA85BB85A40FB51F14974C9123
:1034F00011962C91119712969C91129713968C917C
:1035000040832183928383838FEF481A580A680A85
:10351000780A3496D4CF4C8540834D85F901408399
:103520002E85FC0120838F858C93F701E00FF11F1E
:10353000412C512C3201AF019F012F5F3F4FCF0132
:103540000296DF0113960C5F1F4F8C849D84AE841E
:10355000BF84481459046A047B04D8F4CF01841B47
:10356000950BAC89BD89A80FB91F3C9111962C9180
:10357000119712969C91129713968C913083218308
:10358000928383838FEF481A580A680A780A349620
:10359000D3CF4E8940834F89F9014083288DFC01A8
:1035A0002083898D8C93412C512C32018E899F89E7
:1035B000A88DB98D481659066A067B0680F552011A
:1035C000AA0CBB1CEC8DFD8DEA0DFB1DA081B18109
:1035D000FD0101900020E9F731976F01CA1ADB0A5B
:1035E000A60170E060E0C701800F911F0E94090DE5
:1035F0000C5F1F4F8C8D9D8DA80EB91EF50160814B
:103600007181A601C701800F911F0E9430480C0DE7
:103610001D1DFFEF4F1A5F0A6F0A7F0AC7CFC8014F
:10362000DF91CF911F910F91FF90EF90DF90CF909E
:10363000BF90AF909F908F907F906F905F904F90D2
:103640000895EF92FF920F931F93CF93DF938C0116
:103650007B01DC0112962C911297FB012193CF0183
:103660001396ED91FC91EF0109900020E9F7219765
:10367000CE1BDF0BAE0170E060E00E94090DD801A7
:1036800013966D917C91AE01C70105960E9430485A
:10369000CE010596DF91CF911F910F91FF90EF9092
:1036A0000895CF92DF92EF92FF920F931F93CF93E3
:1036B000DF936C01EB01DC0112968C9112978883E9
:1036C00013968C91139789831496ED91FC91DF01E9
:1036D0000D900020E9F78D01015011090E1B1F0B01
:1036E000A80170E060E0CE0102960E94090DF6018B
:1036F00064817581A801CE0106960E943048C801F8
:103700000696F601A681B781FD0101900020E9F738
:1037100031977F01EA1AFB0AA70170E060E08C0F85
:103720009D1F0E94090D065F1F4FD60116966D91D1
:103730007C91A701CE01800F911F0E9430480E0D91
:103740001F1DF601A085B185FD0101900020E9F75C
:1037500031977F01EA1AFB0AA70170E060E0CE0111
:10376000800F911F0E94090D0C5F1F4FD601189604
:103770006D917C91A701CE01800F911F0E9430486E
:10378000C701800F911FF601628543853485258529
:10379000C80FD91F688349833A832B830496DF912E
:1037A000CF911F910F91FF90EF90DF90CF900895F0
:1037B000AF92BF92CF92DF92EF92FF920F931F933F
:1037C000CF93DF9300D01F92CDB7DEB78C016B0192
:1037D0007A018091C9098333E9F45B016801C40E61
:1037E000D51EC016D106A9F10E94A1088FE00E9443
:1037F000AD08812F0E94AD08802F0E94AD080F5F99
:103800001F4F80E00E94AD08F50181935F010E9487
:103810009708E7CF843369F50E94A10819830A83CA
:103820008F2D8F778B83EC8264E070E0CE01019660
:103830000E947D08A70170E060E0C6010E9439483F
:10384000E114F10421F0B701C6010E947D080E9435
:103850009708C7010F900F900F900F90DF91CF91B5
:103860001F910F91FF90EF90DF90CF90BF90AF909E
:1038700008950E94A1080F3F110509F030F4198244
:103880000A831B8263E070E0D1CF17FD0BC0198261
:103890000A8333E0169507953A95E1F7007E0860B4
:1038A0000B83F0CFC80126E0969587952A95E1F71E
:1038B000807E19830A830115104C18F480618B8374
:1038C000E1CF8861FCCF1F93CF93DF931F92CDB7D9
:1038D000DEB7182F80E591E00E946801812F0E94D9
:1038E000190827E0129FF0011124EF56F64F2281AC
:1038F0003381377041E050E0BE016F5F7F4F820F30
:10390000931F56DF89810F90DF91CF911F9108950A
:10391000FC01808D883038F4218D328D232B19F0F5
:10392000D2DF90E008958FEF9FEF0895CF93DF935C
:10393000FC012485283028F08FEF9FEFDF91CF9195
:103940000895EC010190F081E02D0084F185E02DD7
:103950001995892B89F38C85B6DF90E0EFCFDA01DA
:10396000E0914009F0E0FE2FEE27E60FF71F90E010
:10397000982F8827A901BD018E0F9F1F19CF7F9215
:103980008F929F92AF92BF92CF92DF92EF92FF926F
:103990000F931F93CF93DF931F921F92CDB7DEB784
:1039A000782E8B014A01590122E030E0AE014F5FD1
:1039B0005F4F64E270E0D3DFE980FA80FE24EF24F9
:1039C000FE24E00EF11E970137704091C909072DC2
:1039D00010E0433309F042C0085F1F4F102F00274B
:1039E000110F110F110FC901800F911F4733C9F13A
:1039F000A9014A0D5B1D4130584098F160E078E024
:103A00006B01C21AD30AA601B4010E94B408A50131
:103A10004C195D09B4016C0D7D1DC8010E94B408EC
:103A2000EA0CFB1CF982EA8222E030E0AE014F5F33
:103A30005F4F64E270E0872D0E9454090F900F9051
:103A4000DF91CF911F910F91FF90EF90DF90CF907A
:103A5000BF90AF909F908F907F900895005F1F4F11
:103A6000BDCFA501B401DACFEF92FF921F93CF93A0
:103A7000DF931F921F92CDB7DEB7182F22E030E000
:103A8000AE014F5F5F4F60E270E069DFE980FA806E
:103A9000FE24EF24FE2422E030E0AE014F5F5F4FB2
:103AA00060E270E0812F5BDF89819A819827892706
:103AB0009827E816F90689F487E0189FF001112489
:103AC000EF56F64FF582E482C7010F900F90DF9119
:103AD000CF911F91FF90EF9008957C01DCCF9F92D2
:103AE000AF92BF92CF92DF92EF92FF920F931F930C
:103AF000CF93DF938C015B01942EE52EFC01C688E9
:103B0000D788F08C80E591E00E9468018F2DACDFB2
:103B1000C92DDE2D8C179D0708F4EC019E01A5012F
:103B2000B6018F2D2CDFF801868997898C0F9D1F98
:103B3000978B868BCE01DF91CF911F910F91FF90D4
:103B4000EF90DF90CF90BF90AF909F900895FF923D
:103B50000F931F93CF93DF931F921F92CDB7DEB7C2
:103B6000F82E22E030E0AE014F5F5F4F66E270E07A
:103B7000F6DE09811A8110270127102722E030E0A4
:103B8000AE014F5F5F4F66E270E08F2DE8DE898106
:103B90009A819827892798270817190749F4C80197
:103BA0000F900F90DF91CF911F910F91FF9008958B
:103BB0008C01E4CF1F93CF93DF93182F87E0189FDA
:103BC000E0011124CF56D64F88819981009759F48E
:103BD00080E591E00E946801812FB9DF2E81821B70
:103BE000910999838883DF91CF911F910895FC01FA
:103BF0008485883008F4DECF90E080E008950F934C
:103C00001F93CF93DF931F921F92CDB7DEB7FC01B6
:103C100024852830D8F48C0180E591E00E94680169
:103C200022E030E0AE014F5F5F4F60E170E0F801ED
:103C3000848595DE89819A819827892798270F9016
:103C40000F90DF91CF911F910F91089590E080E048
:103C5000F6CFEF92FF920F931F93CF93DF9300D095
:103C60001F92CDB7DEB78C017B01FB0184858830C4
:103C7000A8F088EC93E0F80191838083128213828C
:103C800014821582C8010F900F900F900F90DF9152
:103C9000CF911F910F91FF90EF90089580E591E0F3
:103CA0000E94680124E030E0AE014F5F5F4F6CE09E
:103CB00070E0F701848553DE88EC93E0F80191838E
:103CC000808389819A81AB81BC8182839383A48321
:103CD000B583D8CF0F931F93CF93DF931F921F927B
:103CE000CDB7DEB7FC0124852830D8F48C0180E5FF
:103CF00091E00E94680122E030E0AE014F5F5F4F2B
:103D000064E070E0F80184852ADE89819A81982731
:103D1000892798270F900F90DF91CF911F910F91D6
:103D2000089590E080E0F6CFCF93DF931F92CDB758
:103D3000DEB741E050E0BE016F5F7F4F39DD898122
:103D40000F90DF91CF9108952091400930E0322FFC
:103D50002227620F731F90E0982F8827860F971FE6
:103D6000E3CF1F93CF93DF93182F80E591E00E945C
:103D70006801812F79DEEC0163E070E0812FE4DFE0
:103D8000873121F08C3111F0D0E0C0E0CE01DF911D
:103D9000CF911F910895FC018485883008F4E1CF0C
:103DA00090E080E00895CF93C82F80E591E00E94D5
:103DB000680163E070E08C2FCF91C6CFCF93DF9383
:103DC000EC018C858830C8F4EEDF843189F08823DB
:103DD00079F0883169F021E08C3159F4E881F9817A
:103DE0000084F185E02DCE01199521E0892B09F49D
:103DF00020E0822FDF91CF91089580E0FBCFCF9319
:103E0000DF93EC018C85883050F4CDDF873111F0E1
:103E10008C3129F48C85A5DF8115984098F3DF91CA
:103E2000CF910895CF93C82F462F61E070E00E9494
:103E3000C30961E070E08C2F87DF8111FACFCF9149
:103E400008958F929F92AF92BF92CF92DF92EF929E
:103E5000FF920F931F93CF93DF93CDB7DEB7609799
:103E60000FB6F894DEBF0FBECDBF7C019091C9099B
:103E7000911115C018E0812F60960FB6F894DEBF3F
:103E80000FBECDBFDF91CF911F910F91FF90EF90AB
:103E9000DF90CF90BF90AF909F908F90089508E0F3
:103EA000933309F404E06B0180E591E00E9468011E
:103EB0009E012F5F3F4F5901490110E063E070E020
:103EC000812F42DFF40181934F018823B9F01F5FF6
:103ED0000113F4CF00E0F50181915F018D3149F0CC
:103EE000883139F08A51823020F00F5F1013F3CF00
:103EF000C1CF60E170E0802F95DF102FA12EB12C93
:103F000083EE93E00197F1F742E870E060E0812FE3
:103F10000E94C3094FEF62E070E0812F0E94C30945
:103F2000B601C114D10491F4809121029091220232
:103F300001968115F0EC9F0708F45AC09093220275
:103F4000809321026091210270912202812F0E94B0
:103F5000790986E0EFE3F2E0DE01199601900D9217
:103F60008A95E1F7F70183818F778C8784818D872C
:103F700085818E87A7014E5F5F4F24E030E06CE0C3
:103F800070E0812F0E945409B601812F0E946409BC
:103F900026E030E0AE01475F5F4F66E070E0812FC2
:103FA0000E94540961E070E0812F3CDF27E02A9DE8
:103FB000C0012B9D900D11249C012F56364F790185
:103FC000F9011182108222E030E0AE01415F5F4FC3
:103FD00068E270E0812FC3DC8F8598899827892754
:103FE0009827F7019383828316821582148243CF28
:103FF00080E090ECA3CF4F925F927F928F929F923E
:10400000AF92BF92CF92DF92EF92FF920F931F93E6
:10401000CF93DF931F921F92CDB7DEB7782E6B013F
:104020004A01A82EB12C27E0829FC0011124FC0177
:10403000EF56F64F7F010081118180E591E00E94EB
:104040006801081519054CF4872D81DDF7012681DB
:104050008C01021B1109118300830115110521F543
:1040600063E070E0872D70DE843159F0882349F0D9
:1040700001E010E08C3111F410E000E011950195A1
:104080001109C8010F900F90DF91CF911F910F91EF
:10409000FF90EF90DF90CF90BF90AF909F908F9068
:1040A0007F905F904F900895801691060CF48401E4
:1040B00087E08A9DF0018B9DF00D1124EF56F64F9D
:1040C000E280F380C114D10441F12701F7E05F22BF
:1040D000872D0E941908840D951D2091C909273349
:1040E00009F450C09801240D351D2130384008F4E2
:1040F00049C020E038E0490184189508A401B601C0
:1041000057DB2601480C591C6801C818D908872DAF
:104110000E941908A601B2014BDBE00EF11E87E0F8
:104120008A9DF0018B9DF00D1124EF56F64FF3821E
:10413000E28220813181201B310B318320838681F3
:10414000800F912F911D8A3F910510F4232BE9F4E4
:1041500087E08A9DF0018B9DF00D1124EF56F64FFC
:104160001682F982EA8222E030E0AE014F5F5F4FB3
:1041700068E270E0872D0E94540960E470E0872DAA
:1041800051DE7FCFA801B601C7CF86837ACFCF9308
:10419000DF93FC01218D328D2115310529F48FEF3C
:1041A0009FEFDF91CF910895EC01808D4217530767
:1041B00008F0A90120DF181619068CF7298D3A8D11
:1041C000281B390B3A8F298FECCF0F931F93CF9376
:1041D000DF931F92CDB7DEB7FC01218D328D232BEB
:1041E00041F48FEF9FEF0F90DF91CF911F910F91CF
:1041F00008958C0141E050E0BE016F5F7F4FFC01EC
:10420000808DF9DE1816190664F7F801818D928DFC
:104210000197928F818F898190E0E5CF0F931F9353
:10422000CF93DF9300D000D01F921F92CDB7DEB79F
:104230008C01D80159964D915C915A9741155105C1
:1042400051F0ED91FC91048CF58DE02D70E060E073
:10425000C8011995EECFF801808DACDC892BA9F14E
:1042600048E050E0BE016F5F7F4FD80158968C91B7
:10427000C2DE18161906F4F4D801509684E0FE0147
:10428000319601900D928A95E1F78D8190E0982FFB
:1042900088272E81820F911DF801958B848B8F8149
:1042A000282F30E0322F22278885820F932F911DEF
:1042B000928F818F28960FB6F894DEBF0FBECDBFC8
:1042C000DF91CF911F910F91089590E080E0F2CFA0
:1042D000CF93DF931F92CDB7DEB741E050E0BE0130
:1042E0006F5F7F4FFC01848586DE1816190634F453
:1042F000898190E00F90DF91CF9108958FEF9FEF2C
:10430000F9CFFC018485883008F475CE90E080E018
:104310000895CF93C82F80E591E00E94680168E07E
:1043200070E08C2FCF917ECDCF93C82F80E591E0A8
:104330000E94680160E170E08C2FCF9173CDCF9225
:10434000DF92EF92FF920F931F93CF93DF9300D0F2
:1043500000D0CDB7DEB78C016B017A01FC01808DF6
:10436000883008F4E1DF88EC93E09A838983F601D2
:1043700082819381A481B5818B839C83AD83BE832D
:10438000B701CE0101965DDDF801808F8830A0F481
:10439000F586E486128E118E81E026960FB6F8948B
:1043A000DEBF0FBECDBFDF91CF911F910F91FF9068
:1043B000EF90DF90CF90089580E0EFCFCF93DF9321
:1043C000EC01888D883018F4AFDF88E0888FDF91AA
:1043D000CF910895CF92DF92EF92FF92CF93DF9328
:1043E000EC018C85883058F494DF0E941D056B0128
:1043F0007C018C85D8DC811109C088E08C87DF9135
:10440000CF91FF90EF90DF90CF90089561E070E042
:1044100080E090E00E94EC040E941D05AB01BC010D
:104420004C195D096E097F098D859E85B0E0A0E07D
:10443000481759076A077B07E0F28C8575DFDDCFE7
:104440008F929F92AF92BF92CF92DF92EF92FF92A4
:104450000F931F93CF93DF9300D000D000D01F9213
:10446000CDB7DEB79091C909911115C018E0812F21
:104470002A960FB6F894DEBF0FBECDBFDF91CF9165
:104480001F910F91FF90EF90DF90CF90BF90AF9072
:104490009F908F90089528E0F22E933311F494E0CA
:1044A000F92E6B01082F80E591E00E9468019E01C2
:1044B0002F5F3F4F5901490110E063E070E0812F09
:1044C00043DCF40181934F018823B9F01F5FF1129F
:1044D000F4CFF12CF50191915F019D3149F09831B4
:1044E00039F09A51923020F0F3941F11F3CFBECFE0
:1044F00060E170E08F2D96DC1F2DE12EF12C83EE14
:1045000093E00197F1F7402F70E060E0812F0E9467
:10451000C3094FEF62E070E0812F0E94C309B6012A
:10452000CD2889F480912102909122020196811573
:10453000F0EC9F0788F19093220280932102609112
:10454000210270912202812F0E94790961E070E0BE
:10455000812F68DC27E02E9DC0012F9D900D112436
:104560009C012F56364F7901F9011182108222E009
:1045700030E0AE01475F5F4F68E270E0812FEFD916
:1045800089859A85982789279827F70193838283BD
:104590001682158214826BCF80E090ECCCCF0F9303
:1045A0001F93CF93DF93EC018B01888D883008F443
:1045B000BBDEB80182E044DF888F883050F41D876D
:1045C0000C871A8E198E81E0DF91CF911F910F9188
:1045D000089580E0F9CFCF93FC01C08D80E591E094
:1045E0000E94680160E270E08C2F1CDC62E070E0E9
:1045F0008C2FAADB84FD15C062E070E08C2FA4DB59
:1046000083FF0AC048E162E070E08C2F0E94C3097A
:1046100080E090E0CF91089580E591E00E946801EC
:10462000E5CF40E162E070E08C2F0E94C30981E099
:10463000F0CF4F925F926F927F928F929F92AF9244
:10464000BF92CF92DF92EF92FF920F931F93CF937F
:10465000DF93CDB7DEB763970FB6F894DEBF0FBE1A
:10466000CDBF7C016B013A01FB0120E090E080E0CE
:104670006AE03191332309F45FC040ED430F4A30C3
:1046800008F04BC0689FA001699F500D1124CA011A
:10469000C097830F911D37FD9A958F3F910549F380
:1046A00040F3F70142815381648175818091B50C9B
:1046B0009091B60CA091B70CB091B80C481759075F
:1046C0006A077B0709F4F1C18701085F1F4F0E9449
:1046D0001D056F7077277C5FC80161DF813009F0AD
:1046E000E9C188EC93E09A838983F7018281938101
:1046F000A481B5818B839C83AD83BE8345E350E069
:10470000BE016F5F7F4FC8010E948E09892BA1F502
:10471000D12CC12CC80152DE17C03E3209F0C1CFE6
:10472000233009F4BECFD301A20FB11D12968C9392
:104730002F5F90E080E09DCF233009F0B2CFF301EE
:104740008583CC24C394D12CC60163960FB6F8940C
:10475000DEBF0FBECDBFDF91CF911F910F91FF90B4
:10476000EF90DF90CF90BF90AF909F908F907F9011
:104770006F905F904F9008950E941D05F701778319
:10478000668342E050E0B7016A5F7F4FC801A7D956
:1047900081E090E09A83898342E050E0BE016F5F40
:1047A0007F4FC8019CD980E091E09A83898342E0E1
:1047B00050E0BE016F5F7F4FC80191D91A82198204
:1047C00042E050E0BE016F5F7F4FC80188D942E0F0
:1047D00050E0BE016F5F7F4FC80181D942E050E0D9
:1047E000BE016F5F7F4FC8017AD95601F601808103
:1047F0008823F1F06501F60181912F01882311F0E2
:104800008E32A1F446018A189B081814190464F426
:104810008D8641E050E0BE01635F7F4FC8015FD9E4
:10482000A401B501C8015BD95201E0CF6201E3CF19
:104830001D8641E050E0BE01635F7F4FC8014FD944
:10484000C12CDD24D394DA82C98242E050E0BE015B
:104850006F5F7F4FC80143D9DA82C98242E050E0DE
:10486000BE016F5F7F4FC8013AD9C801B4DE892B02
:1048700009F44ECFF3E0AF2EB12C230122E0420E1B
:10488000511CC9C0F7014281538164817581808DBB
:10489000918DA28DB38D481759076A077B0709F0E0
:1048A000FAC0848D958DC59709F0F5C081A192A1BC
:1048B0005DEFC52EDD24DA940C970CF4A2C04CE019
:1048C00050E0BE016F5F7F4FC80161DC8B819C812E
:1048D0009827892798279A8B898BF70146815781DA
:1048E00029813A814217530709F0DAC097FFD8C0EF
:1048F0008F7092703BEFC32EDD24DA94892B09F080
:1049000080C06F8078847624672476242AEFC22EB4
:10491000DD24DA946114710409F473C0D12CC12C24
:104920008D819E81982789279827C816D906E0F49B
:1049300041E050E0BE01635F7F4FC80128DC4D8538
:10494000442329F050E070E060E0C80120DC8D8550
:104950008111EECF44E050E070E060E0C80117DC68
:10496000FFEFCF1ADF0ADCCF912C812C41E050E021
:10497000BE016D5E7F4FC8010ADC4B89842F807CAD
:1049800009F065C0442329F050E070E060E0C80100
:10499000FEDB8B898111EACF42E050E0BE01615F0E
:1049A0007F4FC801F4DB42E050E0BE01635F7F4F00
:1049B000C801EDDB44E050E070E060E0C801E7DBF7
:1049C00042E050E0BE016F5E7F4FC801E0DB8F85A3
:1049D000988949895A898115914009F040C0CD8450
:1049E000DE84DC24CD24DC2481E0C816D104B9F5B2
:1049F0004115544009F046C044E050E0B201C801FE
:104A0000C6DB21E0A21AB10809F484CEFFEFCF166D
:104A1000DF0609F07FCE0E941D053B014C01C80155
:104A2000FDDB181619060CF42DCF0E941D05661922
:104A3000770988099909693873418105910538F525
:104A400062E370E080E090E00E94EC04E8CF41E097
:104A500050E070E060E0C8019ADB1B8A9ACF5427CF
:104A60004527542770E060E0C80191DBFFEF8F1A03
:104A70009F0A6814790409F079CF96EFC92EDD24D6
:104A8000DA94BFCFE7EFCE2EDD24DA94BACFCC2470
:104A9000CA94DC2CB6CF6EEFC62EDD24DA94B1CFEB
:104AA0004CEFC42EDD24DA94ACCF8EEFC82EDD247B
:104AB000DA944ACED12CC12C47CECF92DF92EF921E
:104AC000FF920F931F93CF93DF93CDB7DEB7AF97CE
:104AD0000FB6F894DEBF0FBECDBF7C016A0108ECB3
:104AE00013E01A8309831C861B8688EE93E0A0E0FE
:104AF000B0E08D879E87AF87B88B89EF92E09A8769
:104B00008987188F0F8B198E1A8E1B8E1C8E88E04A
:104B100089A31BA70AA71CA61DA61EA61FA68091D7
:104B2000A90C9091AA0CA091AB0CB091AC0C8EA3E7
:104B30009FA3A8A7B9A78B839C83AD83BE83188648
:104B40001F82AE01465D5F4FCE01019672DD81305E
:104B50009105B1F4D701ED91FC910488F589E02D20
:104B60001DA30CA38CA59DA5AEA5BFA58EA39FA339
:104B7000A8A7B9A7A601BE016C5D7F4FC701199513
:104B8000AF960FB6F894DEBF0FBECDBFDF91CF91C9
:104B90001F910F91FF90EF90DF90CF900895CF92EB
:104BA000DF92EF92FF920F931F93CF93DF93CDB7D6
:104BB000DEB7AF970FB6F894DEBF0FBECDBF8C0146
:104BC0006B017A0188EC93E09A8389831B821C82B3
:104BD0001D821E821C861B8648EE53E060E070E05A
:104BE0004D875E876F87788B29EF32E03A87298778
:104BF000988F8F8B198E1A8E1B8E1C8E28E029A3FE
:104C00009BA78AA71CA61DA61EA61FA6D8011C9698
:104C10008C91883050F4C7D8882319F0F801848526
:104C200078DB88E0D8011C968C938091A90C909138
:104C3000AA0CA091AB0CB091AC0C8EA39FA3A8A71B
:104C4000B9A78B839C83AD83BE8318861F82AE0178
:104C5000465D5F4FB601CE010196EBDC0097C1F0D7
:104C6000D801ED91FC910684F785E02D88EC93E066
:104C70009DA38CA38CA59DA5AEA5BFA58EA39FA328
:104C8000A8A7B9A7A701BE016C5D7F4FC801199500
:104C9000AF960FB6F894DEBF0FBECDBFDF91CF91B8
:104CA0001F910F91FF90EF90DF90CF9008958F921A
:104CB0009F92AF92BF92CF92DF92EF92FF920F93AB
:104CC0001F93CF936C015B018A01FC01C485C8303E
:104CD000D0F57A014130584018F0E12C88E0F82EE8
:104CE00080E591E00E9468018C2F0E94341D4C01E8
:104CF00063E070E08C2F28D8873111F08C3131F5CA
:104D00008E149F0468F380E591E00E94680197018A
:104D1000A50170E060E08C2F0E94BF1C60E270E093
:104D20008C2F80D862E070E08C2F0ED884FD16C0E6
:104D300063E070E08C2F08D881110BC081E090E017
:104D4000F6019383828310E000E010C0F12CE12C87
:104D5000DACF80E591E00E946801E4CF40E162E0B3
:104D600070E08C2F0E94C309EF2841F3C801CF9156
:104D70001F910F91FF90EF90DF90CF90BF90AF9079
:104D80009F908F900895EF92FF920F931F93CF9370
:104D9000DF9300D01F921F92CDB7DEB76436710546
:104DA0004CF0FC01E956FB4F2081F12CE12C222331
:104DB00009F44AC0DA017B018C01BC01605D7D4FC2
:104DC000ED91FC910190F081E02DCA011995B80197
:104DD000675D7D4F2FEFDB012C93F801E65DFD4F02
:104DE0002EEF208331968083319690833196292F40
:104DF000280F209520833196E0821696FC9245E09C
:104E000050E030E020E07C01B6E0EB0EF11CE4164F
:104E1000F50634F0A1912A0F311D4F5F5F4FF7CF98
:104E20007C01E8E0EE0EF11C800F911FFC01E05DBB
:104E3000FD4F20952083F1E0EF16F2E0FF068CF4A1
:104E4000A701C801029633DFC7010F900F900F90A2
:104E50000F900F90DF91CF911F910F91FF90EF90E6
:104E600008958DEE92E09A83898383E08B8383E5B6
:104E700097E09D838C83D801ED91FC910190F081A6
:104E8000E02DAE014F5F5F4F67E070E0C8011995FC
:104E9000EE24EA94FE2CD8CFCF92DF92EF92FF92CD
:104EA0001F93CF93DF93EC017B016A018C858830DF
:104EB00040F40E94D31E882311F08C852ADA88E002
:104EC0008C87F70182819381A481B5810097A10528
:104ED000B10551F490E080E0DF91CF911F91FF90F8
:104EE000EF90DF90CF9008958F3F9F4FAF4FBF4F10
:104EF00089F370E060E081E2A3DA182F8C878830B4
:104F000048F780E591E00E946801A7014E5F5F4F7E
:104F100024E030E06CE070E0812F0E945409B6017B
:104F2000812F0E94640964E070E0812F0E94121FAB
:104F30000E941D056B017C018C850E94D31E873168
:104F400009F18C31F9F0882329F20E941D05AB018B
:104F5000BC014C195D096E097F098D859E85B0E005
:104F6000A0E084179507A607B70738F061E070E066
:104F700080E090E00E94EC04DFCF8C85D5D988E0FA
:104F80008C87A8CF81E090E0A7CF90E080E00C94E0
:104F9000941ECF93DF93C4E1D0E0F7DF882361F064
:104FA00061E070E080E090E00E94EC042197A9F7B6
:104FB00080E0DF91CF91089581E0FBCF1F93CF93E5
:104FC000DF931F921F92CDB7DEB760E372E080E0FF
:104FD00090E00E94EC041FB7F89480913F09811182
:104FE00027C0E3EFF1E08491E3E9F1E09491E82F49
:104FF000F0E0EE0FFF1FEC51FF4FA591B491EC9143
:10500000E92321F461E085E30E94890361E085E3FF
:105010000E94B6038CB580618CBD8CB580648CBD5C
:1050200061E084E30E94B60361E083E30E94B6037B
:1050300080913F098F5F80933F091FBF80912002BD
:10504000282F30E0F901E254FE4FE491F0E0EE0F3A
:10505000FF1FE250FF4F4591549150933E094093FA
:105060003D09F901E25AFE4FE491E0933C0961E009
:105070000E94B6030E94970880E591E00E946801B3
:1050800084E38093C90980E80E94DF0982DF8823D6
:10509000B1F188E00E94DF0978DF883081F580E196
:1050A0000E94DF0972DF803151F580E00E94DF0944
:1050B0006CDF182F811123C08FE190E00E94941EB5
:1050C0008330E9F480E48093400942E06EE170E0CF
:1050D000812F0E94C30942E06FE170E0812F0E949E
:1050E000C3091F5F183089F781E08093CA096CE813
:1050F00077E082EF9BE00E94921981E05CC087E339
:105100008093C90980E80E94DF0943DF8823E1F02A
:1051100088E00E94DF0939DF8830B1F480E10E9425
:10512000DF0933DF182F803179F480E00E94DF0936
:105130002CDF811109C089E390E00E94941E843025
:1051400019F410934009D0CF83E38093C90980E814
:105150000E94DF091EDF882359F180E10E94DF09E8
:1051600014DF803129F582E10E94DF090EDF8231F0
:10517000F9F480E00E94DF0908DF811119C084E0A2
:105180008093400915E51A8341E050E0BE016E5F4F
:105190007F4F8BE190E00E94B408198341E050E01A
:1051A000BE016F5F7F4F8AE190E00E94B4089CCF00
:1051B0001092C90980E00F900F90DF91CF911F915D
:1051C0000895CF92DF92EF92FF92CF93DF93CDB706
:1051D000DEB7C254D1090FB6F894DEBF0FBECDBF03
:1051E000FC01428153816481758123964CAF5DAF90
:1051F0006EAF7FAF239781E023968FAF23972396DF
:10520000CCACDDACEEACFFAC2397CBAADCAAEDAA0C
:10521000FEAA4DA75EA76FA778AB88ABCDA4DEA48E
:10522000EFA4F8A8CFA2D8A6E9A6FAA68EABCBA881
:10523000DCA8EDA8FEA8C9A2DAA2EBA2FCA228EC89
:1052400033E03C8B2B8B9FEF9D8B9E8B9F8B188E1F
:105250003E872D878AA7CFA0D8A4E9A4FAA4CF8639
:10526000D88AE98AFA8A8CA389A19AA1ABA1BCA1A8
:1052700089879A87AB87BC873A8329834B835C8372
:105280006D837E838091CA09882309F443C080E539
:1052900091E00E94680146E050E063E272E089E03C
:1052A00090E00E94B40844E050E0BE016D5F7F4F83
:1052B0008FE090E00E94B40844E050E0BE01615FDE
:1052C0007F4F81E090E00E94B40844E050E0BE01CE
:1052D0006B5E7F4F85E090E00E94B40881E08C8790
:1052E00089859A85AB85BC858093A90C9093AA0C7F
:1052F000A093AB0CB093AC0CCE5BDF4F0FB6F89421
:10530000DEBF0FBECDBFDF91CF91FF90EF90DF905A
:10531000CF90089553DE882379F3B9CF85ED80933C
:10532000BC008091F3099091F409A091F509B09126
:10533000F6090796A11DB11D23E0B695A79597958F
:1053400087952A95D1F72091BC0024FD03C01092C7
:10535000F10908954091F3095091F4096091F5091C
:105360007091F609452B462B472B69F30097A10551
:10537000B10541F025E32A95F1F700000197A10955
:10538000B109E1CF8091F2090C94B40A0F931F93F5
:10539000CF93DF938C0167E070E090E080E00E94A3
:1053A0005447EC01009729F018826CE977E00E94DD
:1053B0004948BE01F801828193810E94404821E062
:1053C000892B09F020E08091F10882132093F108E5
:1053D000209739F0CE01DF91CF911F910F910C945E
:1053E000CB46DF91CF911F910F9108952F923F925D
:1053F0004F925F926F927F928F929F92AF92BF92E5
:10540000CF92DF92EF92FF920F931F93CF93DF9390
:10541000CDB7DEB72E970FB6F894DEBF0FBECDBF67
:105420008C016B01DB018D909D90AD90BC90FC01D7
:1054300082819381A481B58188159905AA05BB0550
:1054400070F4B401660F771F660F771F828593850E
:105450000E945447D8011B969C938E931A97F8018B
:1054600082829382A482B582C60140E050E0BA01F4
:10547000A4E0EA2EF12C98012A5F3F4FDC0115963B
:10548000EC91159716964C901697512C712C612C17
:105490003201552444245E2A1496EC9114974E2A26
:1054A0001796EC917E2AD7011701E4E02E0E311CED
:1054B00071010496F80182809380A480B58048151C
:1054C00059056A057B05A8F4468257826086718675
:1054D0001497A284B384AA0DBB1DE4E0BE2EF9018B
:1054E00001900D92BA94E1F74F5F5F4F6F4F7F4F7E
:1054F000C5CF84859585A685B78584159505A605B0
:10550000B70570F4B201660F771F660F771F8489A5
:1055100095890E945447D80155969C938E93549731
:10552000F8014486558666867786C601820D931DEE
:10553000412C512C32011C019801205F3F4FDC01AE
:1055400011966C91119712968C901297912CB12C08
:10555000A12C540199248824962A6C91862A1396AA
:105560006C91B62AB4E0EB0EF11CF8014485558528
:10557000668577854416550666067706C0F4808AE8
:10558000918AA28AB38ABC0162197309A489B58978
:10559000A60FB71F64E0F90101900D926A95E1F73B
:1055A000BFEF4B1A5B0A6B0A7B0A0496C8CF868949
:1055B0009789A08DB18D88159905AA05BB0560F462
:1055C000B401660F771F848D958D0E945447D801D2
:1055D0005D969C938E935C97F801868A978AA08E3D
:1055E000B18E412C512C32011801FAE12F0E311CE1
:1055F000F80186899789A08DB18D481659066A06EB
:105600007B0608F05CC0B6016E0D7F1DCE010196D1
:105610000E94D80C97012C5F3F4F3E872D878980D1
:105620009A80AB80BC80C901032E000CAA0BBB0B77
:10563000AC01BD01480D591D6A1D7B1D49875A8764
:105640006B877C87F901EC0DFD1D9F012C193D092D
:10565000B90190E080E029853A854B855C85621729
:1056600073078407950728F42191DF0112972C9383
:10567000ECCFED84FE84E80CF91CF601EE0DFF1D65
:10568000319710828D859E8501978C0D9D1DD801C7
:105690005B969C938E935A97C201880F991F5C96D4
:1056A000ED91FC91E80FF91FD1018D919C919183AF
:1056B0008083BFEF4B1A5B0A6B0A7B0A99CFC70145
:1056C0002E960FB6F894DEBF0FBECDBFDF91CF91FF
:1056D0001F910F91FF90EF90DF90CF90BF90AF9010
:1056E0009F908F907F906F905F904F903F902F9002
:1056F00008952F923F924F925F926F927F928F9276
:105700009F92AF92BF92CF92DF92EF92FF920F9350
:105710001F93CF93DF93CDB7DEB7A8970FB6F8945A
:10572000DEBF0FBECDBF8C010E941D054B015C0189
:10573000980124563B4F3E8B2D8BF901808191813E
:10574000A281B38175016401C81AD90AEA0AFB0A69
:10575000D701C601893F9A42A105B10510F03597DE
:105760001082180133E7231A3BEF330AD1018D91E0
:105770009C91892B79F0F801E056FB4F8081918153
:10578000A281B38188159905AA05BB0518F4F1011A
:105790001182108298012E5F3F4F388F2F8BA80106
:1057A0004B565B4F5A8B498BC8018F569B4F9C8B36
:1057B0008B8BD8019996BA8FA98FF801E956FB4FC8
:1057C000FE8FED8F2D553B4F38A32F8F415F5F4FDD
:1057D0005AA349A30297988B8F87A659BB4FBC8FBA
:1057E000AB8F3996FCA3EBA3A50194012C5E3F4F30
:1057F0004F4F5F4F2DA33EA34FA358A7F80185A19C
:1058000096A1A7A1B0A5892B8A2B8B2BE1F48F89B8
:10581000988D0E94DE1E81112BC0F8014789508DA2
:1058200088EC93E09A83898383899489A589B689D2
:105830008B839C83AD83BE83BE016F5F7F4F8F8957
:10584000988D2ADB1CC00E941D05681979098A09F8
:105850009B09D8019596CD90DD90ED90FC9098979E
:10586000C616D706E806F90690F68EEF9FEFD2C16E
:105870008F89988D0E9468219C0197FF29C0F801AB
:10588000E956FB4F8081882301F17801B8E6EB1AD5
:10589000BBEFFB0AF70180819181A281B381A50151
:1058A0009401281B390B4A0B5B0BDA01C901853CBB
:1058B0009940A105B10548F0C8010E949E0CD7018E
:1058C0008D929D92AD92BC92139790E080E0A2C120
:1058D000A989BA898D919C911197820F931F8D93FD
:1058E0009C93F1014081518147305105F9F4AB8D12
:1058F000BC8D8D919C911197AC014F5F5F4F4D9383
:105900005C93800F911FFC0121A7AF85B8898D9111
:105910009C91119701978D939C93892B09F06ECFE1
:1059200088E090E0F1019183808368CF41155105B3
:1059300021F52F3F310581F481E090E09183808350
:10594000CDA0DEA0EFA0F8A4ABA1BCA1CD92DD92CA
:10595000ED92FC92139752CF0E941D0568197909A8
:105960008A099B09693873418105910508F446CF7E
:10597000F801E956FB4F108278CF4130510589F488
:105980002E3F310519F482E090E0CCCF11821082D5
:10599000ED8DFE8D8081811131CFC8010E949E0C5A
:1059A0002DCF4230510591F4AF85B8892D933C93AA
:1059B000EB8DFC8D1182108283E090E0D1018D93FC
:1059C0009C93E989FA893183208318CF43305105AC
:1059D00071F4322F2227AF85B8898D919C91119750
:1059E000280F391F2D933C9384E090E09BCF4430E7
:1059F000510579F460E071E00E94F7458F3F910511
:105A000029F485E090E091838083F8CE11821082A2
:105A1000F5CE4530510569F4AB89BC892D933C9393
:105A200086E090E091838083A989BA892D933C9385
:105A3000E5CE46305105A1F4322F2227EB89FC89AF
:105A400080819181280F391F3183208387E090E086
:105A5000D1018D939C93EF85F889808191815DCFF1
:105A60004830510509F0CACE1182108260E071E021
:105A70000E94F7458F3F910509F0C0CEAB89BC89E4
:105A8000ED91FC91309709F0DEC0C8010E949E0C98
:105A900085ED92E09A8389831C821B8282E597E0E0
:105AA0009E838D8398878F839A8789871B861C8620
:105AB0001D861E867801B7EDEB1ABBEFFB0A680165
:105AC000E5EACE1AEBEFDE0A412C22E0522E612CE1
:105AD000712CD701ED91FC913097A9F184819581CA
